S01700006275696C642F697269732F6D61696E2E7372656343
S11300000C9485010C94A4010C94A4010C94A401F7
S11300100C94A4010C94A4010C94A4010C94A401C8
S11300200C94A4010C94A4010C94A4010C94A401B8
S11300300C94A4010C94B7140C94A4010C94001512
S11300400C9413160C94C4150C94FD150C940816FA
S11300500C944C160C94A4010C94A4010C94A401CB
S11300600C9428150C946F120C94A4010C941E1378
S11300700C94A4010C94A4010C94A4010C94871472
S11300800C9466140C9471140C947C140C949A14AF
S11300900C944A140C94A4010C945B140C94A401C5
S11300A00C94A4010C94A4010C94A4010C94A40138
S11300B00C94A4010C94A4010C94A4010C94A40128
S11300C00C94A4010C94A4010C94A401870D550E66
S11300D0A40EA60EB10EB80EDA0E0B0F500F980F29
S11300E0DB0FF70F151078101711AA114F116311B8
S11300F0D011F7118D139813AD13F413FB130214DD
S11301000914101400020E060C04000021104220F1
S113011063308440A550C660E770088129914AA1E4
S11301206BB18CC1ADD1CEE1EFF13112100273325B
S11301305222B5529442F772D662399318837BB334
S11301405AA3BDD39CC3FFF3DEE3622443342004EB
S11301500114E664C774A44485546AA54BB5288584
S11301600995EEE5CFF5ACC58DD55336722611163B
S11301703006D776F6669556B4465BB77AA71997D4
S11301803887DFF7FEE79DD7BCC7C448E5588668C3
S1130190A7784008611802282338CCC9EDD98EE924
S11301A0AFF9488969990AA92BB9F55AD44AB77A9B
S11301B0966A711A500A333A122AFDDBDCCBBFFB74
S11301C09EEB799B588B3BBB1AABA66C877CE44CAB
S11301D0C55C222C033C600C411CAEED8FFDECCDC4
S11301E0CDDD2AAD0BBD688D499D977EB66ED55E7B
S11301F0F44E133E322E511E700E9FFFBEEFDDDF14
S1130200FCCF1BBF3AAF599F788F8891A981CAB19F
S1130210EBA10CD12DC14EF16FE18010A100C230D1
S1130220E3200450254046706760B9839893FBA38C
S1130230DAB33DC31CD37FE35EF3B1029012F32221
S1130240D2323542145277625672EAB5CBA5A895DC
S113025089856EF54FE52CD50DC5E234C324A01471
S113026081046674476424540544DBA7FAB799876C
S1130270B8975FE77EF71DC73CD7D326F2369106C1
S1130280B01657667676154634564CD96DC90EF9B4
S11302902FE9C899E9898AB9ABA944586548067811
S11302A02768C018E1088238A3287DCB5CDB3FEBCC
S11302B01EFBF98BD89BBBAB9ABB754A545A376A61
S11302C0167AF10AD01AB32A923A2EFD0FED6CDD9C
S11302D04DCDAABD8BADE89DC98D267C076C645CB1
S11302E0454CA23C832CE01CC10C1FEF3EFF5DCFAC
S11302F07CDF9BAFBABFD98FF89F176E367E554E01
S1130300745E932EB23ED10EF01E11241FBECFEFA9
S1130310D1E2DEBFCDBF12E0A0E0B2E0E6EBF2E353
S113032000E00BBF02C007900D92A431B107D9F7CA
S113033018E0A4E1B2E001C01D92A132B107E1F7D7
S11303400E9477160C9459190C9400002F98089564
S1130350289A08959FB7F894809191038F5F8093B2
S113036091039FBF08950DB407FEFDCF8EB5089588
S1130370982F0DB407FEFDCF8EB59EBD0895289825
S113038008958627082E8295807F8025092E982F30
S113039082958F700826869598278927880F880F5D
S11303A0880F80250895E8E9F3E01182108284E043
S11303B080936402109290031092AC03109268022E
S11303C01092F0021092EF02089580915E078F3F21
S11303D069F0E82FF0E0EC5BFD4F908190935E07AD
S11303E09F3F11F4909315089FEF90830895809197
S11303F0B0008093B0008091B60081FDFCCF0895D9
S11304002FB7F89480B182FB882780F991E089277F
S1130410019B8260009B84602FBF08959FB7F8946E
S113042080FF02C0129801C0129A81FF02C0119885
S113043001C0119A82FF02C0109801C0109A9FBF98
S11304400895CF93C82F0E94000284700E940E0268
S11304500E9400028C2BCF910C940E029FB7F8944B
S1130460E82FF0E0EC5BFD4F20812F3F99F4E09101
S11304701508E81779F020915E072F3F19F480934F
S11304805E0704C0F0E0EC5BFD4F808380931508A9
S113049080E001C085E09FBF08958CE00C942E029B
S11304A02FB7F89480910802909109022FBF089504
S11304B00F931F932FB7F89440916F0250917002DD
S11304C06091710270917202809184009091850014
S11304D0B09B08C04F5F5F4F6F4F7F4F8091840088
S11304E0909185002FBFBA0155274427A0E0B0E0C2
S11304F08A019B01082B192B2A2B3B2BC901B8011C
S11305001F910F91089540918400509185006FB719
S1130510F89420918400309185002D5F3F4FF901BC
S1130520E41BF50BE817F90718F49C01240F351F99
S11305302115310511F421E030E0215031093093C7
S113054089002093880082E086BB80916F008260DE
S113055080936F006FBF08950F931F93CF93DF9322
S11305608C018FB7F894C0916503D09166039E0106
S11305702F5E3E4F30936603209365038FBF8EE05A
S11305800E942E02CE01B8010E949E188A5D9E4FE1
S1130590DF91CF911F910F9108952FB7F894309167
S11305A0B20080913F0290914002A0914102B0912B
S11305B04202B99B0BC04091B3003091B200019646
S11305C0A11DB11D840F911DA11DB11DBC01CD0143
S11305D0630F711D811D911D2FBF08959FB7F8945E
S11305E022B181E0822782B99FBF08958F929F92A2
S11305F0AF92BF92CF92DF92EF92FF920F931F932D
S11306004091FD0241FF32C08090F5029090F602C5
S1130610A090F702B090F802C090F902D090FA02CC
S1130620E090FB02F090FC028B019C01081919096F
S11306302A093B090C151D052E053F05B8F040FF9E
S113064005C0842F8D7F8093FD020EC0B701A601E3
S1130650480D591D6A1D7B1D4093F5025093F60207
S11306606093F7027093F8020E94EE0289E01F91F2
S11306700F91FF90EF90DF90CF90BF90AF909F903D
S11306808F900C942E02809162038A3021F4809121
S11306906402843021F081E080932902089582E08D
S11306A00E942E02109229020895CF93CFB7F89496
S11306B08091FB07811107C00E942E02811103C0A3
S11306C081E08093FB07CFBFCF910895EAE0F1E08A
S11306D06927660FF11DE60FF11DC895982F802D2F
S11306E03196C8959025089520911D029091280275
S11306F021112FC081112DC081E080931D02209112
S1130700110220931C02292F217020933B02209177
S11307100B0230910C0230931B0220931A02209199
S1130720270220931902292F21708227967EE82F11
S1130730F0E0EE0FFF1FE35FFD4F20813181309326
S11307400C0220930B02982B9093280285E00C94C2
S11307502E0290FF02C09B7F01C09D7F90932802D0
S11307600895CF93DF93D82FC62F809164028130F0
S113077061F028F0823099F0833019F1E2C0DD2372
S113078009F425C10E94D301ECC0D11120C16093AA
S1130790AC038CEB860F823008F0D3C0E4C0D111D7
S11307A0D0C0609368028091EF029091F0020E94A1
S11307B066039093F0028093EF0283E080936402D7
S11307C006C1809190038F3F09F4BBC0DD2309F477
S11307D054C0823008F4B5C0E0919803EE2311F0C0
S11307E0E15001C0E2E0AE2FB0E0A856BC4F129633
S11307F02C9130E0322F2227EE2311F0E15001C07A
S1130800E2E0F0E0E856FC4F8281282B8091EF0271
S11308109091F0022817390709F093C080E00E94F4
S113082074038091AC038434A9F420916802E091AC
S1130830DF029091E00281E08E0F863008F4BDC0A3
S1130840992341F0F0E0E152FD4F22831092DF0240
S11308500E9455030E94D301809118028D7F8093DA
S1130860180280912902882309F4B1C084E080939E
S11308706402DF91CF910C944303823008F44CC09E
S1130880E0919903F0E0E856FC4F928180912802B0
S1130890282F269526952695237030E021303105A2
S11308A021F02230310579F01EC0877E806180936B
S11308B02802992311F080E001C085E0809327028B
S11308C09093110210C0809127028F3260F4E0915E
S11308D00B02F0910C02E80FF11D90838091270226
S11308E08F5F8093270280919903E82FF0E0E85608
S11308F0FC4F62818F5F833018F48093990302C0A8
S1130900109299038091EF029091F0020E94660385
S11309109093F0028093EF0280919803E82FF0E027
S1130920E856FC4FC2838F5F833018F4809398039A
S113093002C010929803809190038F5F809390037C
S113094046C00E94D301809118028D7F80931802C3
S113095081E00E94740380912902811187CFDD23F5
S1130960B1F181E02BCF8091EF029091F0020E94CF
S113097066039093F0028093EF02C43411F482E092
S113098001C083E0809364029091280290FF04C028
S113099092FDD7CF946003C091FDD3CF9260909322
S11309A0280280912802877E886080932802109212
S11309B027028FEF809311020AC0891709F44ACFE6
S11309C0F0E0E152FD4F22838093DF0241CFDF91BB
S11309D0CF910895CF93DF93DFB7F894C0911402B9
S11309E0C11109C081E0809314021092010281E1D7
S11309F00E942E0218C0809176028F3F99F4E091F4
S1130A000202EE2379F0809103028F3F19F41092D1
S1130A10030204C0F0E0EA58FD4F10821092020273
S1130A20C0E001C0C5E0DFBF8C2FDF91CF910895F6
S1130A30CF93DF93DFB7F89480911502823021F5CC
S1130A40C0910402C11120C0909106029F3FB1F0F1
S1130A50E92FF0E0E35AFD4F8081809306028F3F37
S1130A6011F4809305028FEF80839093040281E058
S1130A70809315028AE00E942E0204C0909304021F
S1130A8010921502DFBF02C0DFBFC1E08C2FDF91DF
S1130A90CF910895CF93DF93DFB7F8948091140238
S1130AA0823039F5C0910102C11123C09091030233
S1130AB09F3FB1F0E92FF0E0EA58FD4F8081809329
S1130AC003028F3F11F4809302028FEF808390938F
S1130AD0010281E08093140281E10E942E0204C08D
S1130AE090930102109214028CB58F7B8CBDDFBFF2
S1130AF002C0DFBFC1E08C2FDF91CF910895CF9268
S1130B00DF92EF92FF920F931F93CF93CFB7F89496
S1130B102091B3009091B20087B3291711F081FF9F
S1130B2002C0CFBF7CC080916902811102C086EEF1
S1130B303FC00E94CD02C0903502D0903602E090B2
S1130B403702F090380200916407109165072091F4
S1130B50660730916707AB01BC014C195D096E094A
S1130B607F09401751076207730728F01092690242
S1130B7086EE91E01EC0D901C8018C0D9D1DAE1DED
S1130B80BF1D40913F02509140026091410270911B
S1130B904202841B950BA60BB70B873E9105A1055A
S1130BA0B10528F682309105A105B10508F482E06B
S1130BB090E02FEF280F3091B60033FDFCCF309139
S1130BC0B2002313822F40913F0250914002609162
S1130BD04102709142028A019B010F5F1F4F2F4F08
S1130BE03F4F080F111D211D311D0417150726073E
S1130BF0370710F4842F80952091B60023FDFCCF95
S1130C008093B300CFBF992351F088E0CF911F9117
S1130C100F91FF90EF90DF90CF900C942E02CF9124
S1130C201F910F91FF90EF90DF90CF900895CF9395
S1130C30DF931F92CDB7DEB789830E94BF018981FC
S1130C4080688EBD80E00E94B8010E94B301898350
S1130C500E94A80189810F90DF91CF9108951F937D
S1130C60CF93DF931F92CDB7DEB7182F69830E940D
S1130C70BF01912F906C9EBD89810E94B8010E9492
S1130C80B3010F90DF91CF911F910C94A8018CB503
S1130C908F7B8CBD229A2398219A209A8CB58061EF
S1130CA08CBD8CB58F778CBD8CB5877F8CBD8CB596
S1130CB08B7F8CBD8CB580648CBD8DB581608DBD02
S1130CC08CB58C7F8CBD0895CF93DF93FC0122817A
S1130CD030E0322F22274181242B25FF15C02774B1
S1130CE03C7C2134384881F4FC01C781D0E0DC2FFE
S1130CF0CC278681C82B0E94500221E0C817D9074F
S1130D0009F020E0822F01C080E0DF91CF910895A7
S1130D10CF938FB7F89490910102911106C09091EE
S1130D201402923011F48FBF0FC08FBFCFB7F89465
S1130D308091140281110AC082E0809314021092FF
S1130D4001020E944706CFBF81E004C0CFBF0E94CA
S1130D50EA0480E0CF910895AC01809178029091EB
S1130D607902892BA1F581E090E09093A10380930F
S1130D70A003509379024093780210926602109275
S1130D806502809367029091C00090649093C000C4
S1130D909091C10090649093C100209165023091BC
S1130DA06602C90101969093660280936502FA0176
S1130DB0E20FF31F80819FB7F8948093C60080915F
S1130DC0C00080648093C0009FBF80E0089585E0E8
S1130DD0089593E8980F923050F49091180291601E
S1130DE09093180290E2892780938F038DE7809374
S1130DF0580288E592E00C94AC069FB7F894809171
S1130E0018028E7F809318028EE7809358029FBF4A
S1130E1088E592E00C94AC062F923F924F925F9239
S1130E206F927F92AF92BF92CF92DF92EF92FF9236
S1130E300F931F93CF93DF9320912B02222311F062
S1130E4015E0DEC01091F8071530D1F720919D030D
S1130E502111F6CFEC010E948806882389F38CA522
S1130E6082FF03C06EA56F7001C060E08091AF0285
S1130E70681731F06093AF02606885E00E942F0626
S1130E802A8130E0322F22278981282B27743C7C49
S1130E9021343848A1F486E00E9417068F7190E04F
S1130EA040916E0220915E0230E0240F311D43E038
S1130EB0359527954A95E1F72817390744F169E0F4
S1130EC082E00E942F060E9458022B013C016E0111
S1130ED0EFEFCE1ADE0A08818CA52EEFB22EB00EEB
S1130EE084FF09C09E012C193D098BEF800FA82EA9
S1130EF0A20EBA1802C0AB2CB12C81E00E941706D6
S1130F008F71893039F066E082E00E942F060E94DA
S1130F104A0576C08FB7F8942F9AE0908400F09039
S1130F2085008FBF0E94A6010E94BF0180E68EBD8E
S1130F30802F0E94B80186013A2CF80181918F011B
S1130F400E94B8013A943110F8CFAA942A2D30E0C7
S1130F508601020F131F2F5F3F4F2C0D3D1D1701FC
S1130F60F2EA2F0E311C24183508C101AA2797FD77
S1130F70A095BA2F12012301280E391E4A1E5B1EAA
S1130F80BB2041F1F8018181C280D12CE12CF12CEC
S1130F907601DD24CC24F82A8481C82A8381D82AC6
S1130FA0D701C60182199309A409B50984839383DF
S1130FB0A283B183A22E3901F30181913F010E94E2
S1130FC0B801862D8A198B11F7CFF801C482D38218
S1130FD0E282F1820E94B3010E94A80166E082E0ED
S1130FE00E942F068CA582608CA728A639A64AA643
S1130FF05BA686E08093F80784E080932B0210E0E0
S1131000812FDF91CF911F910F91FF90EF90DF908F
S1131010CF90BF90AF907F906F905F904F903F9034
S11310202F9008953F924F925F926F927F928F928A
S11310309F92AF92BF92CF92DF92EF92FF920F9363
S11310401F93CF93DF9300D0CDB7DEB714E030E821
S1131050A32E05E043E0D42E59E0852E62E0C62E8F
S113106078E0B72E8CEF97E0E5E09E2E980E809105
S11310705E03823009F07DC010925E0380917A0293
S1131080823009F459C0833009F461C0813009F019
S113109070C020918400309185006090E9027090C6
S11310A0EA02621A730A90916202903841F4109233
S11310B0620290916102923009F05BC03AC097FFDE
S11310C004C0161417040CF4A8C3E0905F02F09057
S11310D0600280913D028111A0C3C7010E940C07E8
S11310E0282F81119BC3D7019C968C919C978E7F4E
S11310F09C968C9381E080933D02F0921708E092D5
S11311001608D092620235C097FF9FC316141704C5
S11311100CF09BC3A092620281E080937A028093D8
S11311205E03C30129830E948302298120936807F7
S113113081E08093610208C010923D021092620225
S113114010926807109361020E944D0212C09091A0
S1131150F807923019F48093F80709C080912B02A4
S1131160863029F410922B0281E00E9417060E9417
S1131170590D80919D03882309F4B3C08091F80729
S1131180813009F4AEC00E948806882309F4A9C0FE
S11311908FB7F89460907302709074028FBF1092AE
S11311A09D038FE00E941706F82E80912B028B7FFF
S11311B0833021F40093F807B0922B02F2FE4AC068
S11311C080912B02863011F410922B0280912B0215
S11311D0811140C0B4E0FB1234C086E00E941706BF
S11311E08F7190915E02292F26952695921B980F58
S11311F090935E02E0913902F0913A0294A59B7FAC
S1131200986094A786A70E94580293012750310939
S1131210261B370B2901662457FC6094762CE09139
S11312203902F0913A0224A5226024A7AB01BC0143
S1131230440D551D661D771D40A751A762A773A7CE
S113124007C0E0913902F0913A0284A5857F84A712
S113125000932B02F3FE45C080912B02843081F56C
S11312600093F80710922B0280913D02833019F409
S113127010923D0236C0E0911608F0911708828161
S113128090E0982F88272181822B85FF0EC08774D8
S11312909C7C8134984849F4878190E0982F882772
S11312A02681822B019609F0D3C210923D0210923E
S11312B0620210926807109361020E944D0211C0ED
S11312C0853079F486E00E94170690916E028F7142
S11312D0292F26952695921B980F90936E02809243
S11312E02B0280912B02882309F44DC2893009F026
S11312F0BCC10E94BF0180E28EBD0DB407FEFDCFCC
S11313008EB51EBC0DB407FEFDCF8EB59DEF980FB4
S1131310973208F07AC01EBCE0913902F0913A028B
S11313203F015FEF651A750A8083AEEF5A2E580E9F
S113133086E0851510F0452C02C0F7E04F2E7301AE
S1131340342C40E050E080E049835A830E94B80185
S1131350D7018D937D01682F49815A81CA010E946A
S1131360C101AC013A943110EECF2FEF240D30E0DF
S11313702F5F3F4F620E731EE0913902F0913A02E3
S113138081818770823029F480913D028230D9F5C1
S11313900BC09FB7F89481E020919203233008F0AA
S11313A080E09FBF882379F1852D84197301680E2D
S11313B080E049835A836E1469F00E94B801F701F2
S11313C081937F01682F49815A81CA010E94C1011A
S11313D0AC01EECF0E94B801682F49815A81CA013D
S11313E00E94C1017C0180E00E94B801682FC701FE
S11313F00E94C1017C010E94B301E0913902F09185
S11314003A0285A705C00E94B301EE24E394F12CAF
S11314100E94A8010093F80710922B02EF2809F00C
S1131420A9C14090390250903A02D20111968C9190
S11314301197877090913D02823029F5923009F01E
S11314400FC1E0911608F091170813969C918381BF
S1131450981306C180916F008D7F80936F00109266
S11314605E03E0911608F091170884A5816084A7B3
S113147010923D021092620210926807109361026A
S11314800E944D02EDC0911117C0C2010E94640672
S1131490882391F00093B002C092B1021092B2027C
S11314A0F20183818093B30280EB92E00E940C07E7
S11314B0811102C0D0923D02E0908400F09085003A
S11314C0C2010E946406882321F0F4EEEF1AFCEFB7
S11314D0FF0AF092EA02E092E9028091840090917E
S11314E085009701281B390BC90118161906ACF49D
S11314F02091620221110EC020915E0321110DC0C2
S113150021E020937A0220935E030E948302A0923A
S1131510620203C0206820936202D20119968C9162
S1131520199790E0982F882718962C91822B209158
S11315304302422F50E0FA01EE0FFF1FEE55FC4F1D
S113154060817181F0905F036817790711F4FA01E3
S113155010C0A2EAB3E0ECEFF7E020E030E070E086
S113156060E04D915D914817590779F42093430247
S1131570F901E450F84F80818F1509F43FC0F394CA
S1131580F0925F03F08260E822C041915F2D541B0A
S1131590651710F4722F652F2F5F3F4F25303105EB
S11315A001F770934302272F30E0F901EE0FFF1F7C
S11315B0EE55FC4F91838083F394F0925F03F9011D
S11315C0E450F84FF082F901E45EF74F1082809105
S11315D05F03982F9F779F3719F0209143020EC025
S11315E06F37D8F3ECEFF7E0282F207890819F67CE
S11315F09813208331969E12F9CFEFCFD201139620
S11316009C91E22FF0E0DF01A45EB74F8C91ED5680
S1131610FC4F80FF04C08081981303C021C0816007
S11316208C939083FFB6F894809192038330B8F43E
S1131630E0916207E80FE33008F0E350F0E0EE0FCA
S1131640FF1FE25DFD4F7080E180518240828F5F19
S1131650809392038DE00E942E02472C5E2CFFBEE5
S113166050923A024092390285C09FEF980F93300E
S113167008F06EC09EEF980F9230D8F52091F807CD
S1131680213099F490915E0391110FC029830E9437
S1131690A601D0927A02298120935E038BE293E023
S11316A00E948302C092F8073EC0833011F52330B4
S11316B001F50E9488068823E1F08FE00E94170656
S11316C08091810080648093810080E286BB809158
S11316D06F00806280936F0060915A02606688E0B8
S11316E00E942F0666E082E00E942F061093F807FE
S11316F01AC080912B0281508230A8F48091F8079F
S1131700853089F40E948806882369F063E082E0CA
S11317100E942F0680916F008F7D80936F0010923E
S11317209D03D092F80780912B02813041F490916F
S1131730F8079330F9F42F9A8093F80706C08230A3
S1131740C9F48091F8078330A9F4B0922B0212C037
S1131750873081F40E948806882361F060915A02E0
S1131760606688E00E942F068091F807853069F74B
S11317701093F80780912B02883029F410922B02E1
S11317808BE00E942E0280912B0281111DC080915A
S1131790F8078530C9F480919D03811115C08091AB
S11317A03D02811111C08091620281110DC08091AE
S11317B05E03811109C080916102823029F481E0C5
S11317C0809361020E944D0280912B02811103C01B
S11317D08FE00E942E028FB7F8949091910391307C
S11317E0B9F4109291038FBF0F900F90DF91CF91B6
S11317F01F910F91FF90EF90DF90CF90BF90AF902B
S11318009F908F907F906F905F904F903F9008953E
S113181091E0909391038FBF2ACC25E090916202CE
S1131820892F8F77813009F06FCC907892609093F4
S1131830620280E198E00E94AC0221E020937A02E7
S113184020935E030E94830294CC109262026ECCB9
S113185080915E03811129CDC0927A0281E0809348
S11318605E0389E993E00E948302C0923D0239CD70
S11318709FB7F894809191038150809391038038AD
S113188011F09FBF089581E0809391039FBF0C9452
S113189012080F931F93CF93DF931F92CDB7DEB738
S11318A08C018FE3F801828790912A029F5F9093C5
S11318B02A0293830E94AA018091610281110DC0C2
S11318C0109364030093630381E080936102109298
S11318D060030E944D0280E001C085E089830E947C
S11318E0380C89810F90DF91CF911F910F9108954A
S11318F0FF920F931F93CF93DF93EA012D3108F0EA
S113190068C0EA81F0E0FE2FEE279981E92BAF0150
S113191047745C7C4134584839F0E073FF27E16434
S1131920F868E98398E89A838B01F82E235F28836B
S11319300E945002888799879FB7F8948091070284
S11319409FBF8C831D82FB860E831F838FB7F89401
S11319509091150291110FC092E09093150210928C
S113196004028FBFCE010E94490CC82F882391F135
S11319700E9418052FC08FBFD0935C02C0935B02F6
S1131980DFB7F894C0911502C11109C081E08093BA
S11319901502109204028AE00E942E0218C080915F
S11319A05D028F3F99F4E0910502EE2379F0809176
S11319B006028F3F19F41092060204C0F0E0E35AC5
S11319C0FD4F108210920502C0E001C0C5E0DFBFE8
S11319D001C0C6E08C2FDF91CF911F910F91FF9032
S11319E0089510920002E091EB02F091EC0230971E
S11319F0C9F08091630780FD15C0809100028111B8
S1131A0015C020812D50678170E0762F662786816E
S1131A10682BAF0183850E94780C882339F083E119
S1131A200C942E0281E080930002E7CF08950F9377
S1131A301F93CF9320910002211137C00091EB0234
S1131A401091EC020817190781F5C62F1092EC02C9
S1131A501092EB020E94F10CCC2321F082E00E9450
S1131A6021021DC09FB7F89480913402E82FF0E062
S1131A70EE0FFF1FE959FC4F208131810217130734
S1131A8069F48F5F843118F48093340202C0109299
S1131A90340280915D07811110925D079FBF87E03A
S1131AA0CF911F910F910C942E02CF911F910F9102
S1131AB008959FB7F89480919103882329F0806852
S1131AC0809391039FBF089581E0809391039FBF0A
S1131AD00C9412084F925F926F927F928F929F9212
S1131AE0AF92BF92CF92DF92EF92FF920F931F9328
S1131AF0CF93DF931F92CDB7DEB790E08431910589
S1131B0008F0D6C4FC01EA59FF4F0C9413192FB7FF
S1131B10F8941092FB079091620388EF890F82304A
S1131B2050F410926203E091F402F0E0EE0FFF1F14
S1131B30E558FD4F10822FBF823018F52FB7F89467
S1131B40809161078F5F809361078091770283346E
S1131B5089F48091E0029091DF02981741F08F5F41
S1131B60863018F48093E00202C01092E00290E004
S1131B7080E005C081E0983009F480E091E02FBF57
S1131B8004C0911143C480E090E03FB7F8942091E1
S1131B9029023FBF222339F02FB7F8943AE030935B
S1131BA062032FBF3FC04FB7F89430917B0220915E
S1131BB07D024FBF6FB7F8945091DF024091E0026D
S1131BC06FBF541709F131111FC03FB7F89422E0D9
S1131BD020937B025FB7F8944091DF022091E002EA
S1131BE05FBF421739F0E091E002F0E0E152FD4FAF
S1131BF0228101C020E020937C0223E42093770219
S1131C001092F4023FBF0CC02150223058F42FB779
S1131C10F89435E43093770231E03093F4022FBF27
S1131C2001E001C000E0992341F09FB7F89480934C
S1131C3020029FBF84E00E942E021FB7F894809177
S1131C4062038A3021F40E9443031FBF31C41FBFC3
S1131C50002309F42DC48FB7F89410921908109238
S1131C6018081092750291E0909362038FBF0E944E
S1131C70FD06882309F41CC48FB7F89499E0909367
S1131C8062038FBF0F90DF91CF911F910F91FF904F
S1131C90EF90DF90CF90BF90AF909F908F907F9008
S1131CA06F905F904F900C9455038091C1008F7B8F
S1131CB08093C1008091C1008F778093C1001092FE
S1131CC06103109267028091C10088608093C10013
S1131CD08091C10080618093C1008091C1008068BF
S1131CE08093C1008FB7F89410926203109264023B
S1131CF08FBF1092AE029FB7F89483E08093610384
S1131D008091C10080688093C1009FBF0E94CD0272
S1131D106093F5027093F6028093F7029093F802B1
S1131D208AEF90E0A0E0B0E08093F9029093FA0289
S1131D30A093FB02B093FC028091FD028E7F82602F
S1131D408093FD0289E068C383E066C38091C1008B
S1131D50877F8093C1008091C1008F7E8093C100F2
S1131D60A7C310922402109223028FB7F894A9C239
S1131D709FB7F89420911A0230911B0280913B0284
S1131D809FBF9FB7F894E82FF0E0EE0FFF1FE35FCB
S1131D90FD4F31832083882321F0809128028B7F9B
S1131DA003C0809128028D7F8093280210921D0227
S1131DB09FBF7EC38FB7F89420913E029091F302A7
S1131DC0291307C09091AE02911103C010923C02F6
S1131DD078C28FBF8091F30290E08F5F974F0E948B
S1131DE0AC06811113C00F90DF91CF911F910F9119
S1131DF0FF90EF90DF90CF90BF90AF909F908F9027
S1131E007F906F905F904F900C94EE0283E00E945D
S1131E10210286E001C38FB7F89420916302909168
S1131E203402291307C090915D07911103C01092E9
S1131E30170247C28FBFE0913402F0E0EE0FFF1F9C
S1131E40E959FC4F0190F081E02D60911602668300
S1131E5017828CE283878091EB029091EC02892BAC
S1131E6009F0D6C2F093EC02E093EB0280E18083A8
S1131E7080910002882309F4B6CF1092000270E02A
S1131E8023E0AF018CE20E94780C882309F4ABCFE5
S1131E9081E0809300021092EC021092EB02B8C22F
S1131EA080915902811141C04091AD035091AE031C
S1131EB06091AF037091B0032FB7F894C09064079A
S1131EC0D0906507E0906607F0906707809135022F
S1131ED090913602A0913702B09138028C0D9D1D6D
S1131EE0AE1DBF1D2FBF4093AD035093AE0360934F
S1131EF0AF037093B003109259022FB7F89431E0F6
S1131F00309369028093350290933602A09337028E
S1131F10B093380240936407509365076093660753
S1131F20709367072FBF0E947F050E94CD0230C0C7
S1131F300E94CD022FB7F894109269022FBF20910E
S1131F40FD0221FFB5C20091F5021091F602209125
S1131F50F7023091F8026B017C01C01AD10AE20A3F
S1131F60F30A97018601C090F902D090FA02E0903A
S1131F70FB02F090FC02C01AD10AE20AF30A2FEF26
S1131F80C216D206E2062FE7F20609F058C290C242
S1131F900F90DF91CF911F910F91FF90EF90DF9001
S1131FA0CF90BF90AF909F908F907F906F905F90F5
S1131FB04F900C94F6028FB7F89492E09093150228
S1131FC08FBF80910402811173C280915B02909152
S1131FD05C020E94490C882309F46AC289830E9426
S1131FE01805698180915B0290915C026EC08091BA
S1131FF0610210926102853081F410925D078FB7FF
S1132000F894909162039A3029F09091640294308C
S113201009F057C18FBF81E0FFC19AEF980F92304A
S113202008F446C28093610243C20E94AA0100914F
S11320306102013091F5809160038F5F80936003AA
S1132040863058F580916303909164032091620275
S1132050211115C010915E03111111C090936002FB
S113206080935F02009362028BED91E10E94AC02C7
S113207000937A0200935E030E94830201C015E07C
S113208010936807111104C083E08093610208C0B3
S113209082E08093610210E003C01092610211E0BB
S11320A00E94380C112309F403C26091680700915F
S11320B0630310916403F80182858F3309F0F8C13A
S11320C069830E9418056981C8010F90DF91CF913F
S11320D01F910F91FF90EF90DF90CF90BF90AF9042
S11320E09F908F907F906F905F904F900C94170DFE
S11320F004E110E0DD24D3948FB7F8949091920317
S1132100992309F4DEC0E0916207F0E0EE0FFF1FAF
S1132110E25DFD4FA080B1808FBFF50120818EEF7D
S1132120820F893008F468C082858F3309F052C069
S113213085EF820F823008F45FC0C384E780F12CFE
S1132140FE2CEE248681E82AFFEFEF16FF0651F4F9
S1132150F50194813FB7F894809107023FBF981727
S113216051F04AC029830E9450022981E816F906D9
S113217009F042C0EDCFFCE2CF123EC0FFB6F894A6
S11321808091AE02811121C0203111F580913E026F
S113219090E0F5012685FC01EF5FF74F208301965F
S11321A0B8010E94B21880933E029091F3029813F2
S11321B002C0D092AE0280913C02811109C086E037
S11321C00E942E02D0923C0203C083E00E942102AE
S11321D0FFBE12C0F501E780F12CFE2CEE248681AF
S11321E0E82A0E945002E816F90619F0EF20E0945C
S11321F019F48FB7F8948FBF9FB7F8948091620752
S1132200E82FF0E0EE0FFF1FE25DFD4FB182A082E8
S11322108F5F833018F48093620702C010926207C4
S1132220809192038150809392039FBF65CF1FB723
S1132230F89460916A0270916B0280916C029091A3
S11322406D022EE433E840E050E00E94E8182901D2
S11322503A0100E20E941E1949015A0176946794DA
S113226057944794840C951CA61CB71CB7FE07C052
S1132270E894B7F82FEF821A920AA20AB20A80925F
S11322806A0290926B02A0926C02B0926D021FBF20
S11322908FB7F894909266038092650312C08FB74B
S11322A0F89410925D0310925C031092F707109259
S11322B0F60710922D0210922C021092E80210924E
S11322C0E7028FBFF5C01FB7F89482E08093140231
S11322D00E9447061FBF809101028111E9C08091CD
S11322E0F80781114AC00EEF11E0C8010197019669
S11322F00197E1F716980E94A60186E090E0019705
S113230001960197E1F7169A60E083E00E942F0698
S113231068E082E00E942F06C801019701960197A8
S1132320E1F76DE48EE00E942F0667EC89E00E94DD
S11323302F0660E885E00E942F061092AF028AE122
S113234080935A026AE788E00E942F062F9A81E060
S11323508093F8070F90DF91CF911F910F91FF9019
S1132360EF90DF90CF90BF90AF909F908F907F9031
S11323706F905F904F900C944A050F90DF91CF912E
S11323801F910F91FF90EF90DF90CF90BF90AF908F
S11323909F908F907F906F905F904F900C94590D09
S11323A080916307882309F483C00BEE12E0E12CCB
S11323B0FF24F394809163079F2D982381F0F80103
S11323C0118210829F2D9095892380936307E110D9
S11323D006C082E00E94210287E00E942E02FF0CC8
S11323E0E3940E5F1F4FF8E0EF12E4CF61C0109149
S11323F00002E12FF0E0EE0FFF1FE551FD4F1182C7
S113240010820E94F10C111153C002C000E015CCDF
S113241082E00E94210287E00F90DF91CF911F910B
S11324200F91FF90EF90DF90CF90BF90AF909F906F
S11324308F907F906F905F904F900C942E021C149D
S11324401D041E041F040CF0A3CDC092AD03D09252
S1132450AE03E092AF03F092B00321E0209359025F
S11324603FB7F89420936902609335027093360263
S11324708093370290933802C0926407D092650724
S1132480E0926607F09267073FBF0F90DF91CF910C
S11324901F910F91FF90EF90DF90CF90BF90AF907E
S11324A09F908F907F906F905F904F900C947F05DA
S11324B00F90DF91CF911F910F91FF90EF90DF90DC
S11324C0CF90BF90AF909F908F907F906F905F90D0
S11324D04F9008958FB7F89408958FBF08951F9271
S11324E00F920FB60F9211240BB60F922F933F93B6
S11324F04F935F936F937F938F939F93AF93BF9308
S1132500CF93EF93FF938091C00087FF83C0C09166
S1132510C6002091F1023091F2022115310561F1DA
S11325208091F9079091FA07AC014F5F5F4F509388
S1132530FA074093F907F901E80FF91FC0832091C6
S1132540F9073091FA0780911A0890911B0828170F
S1132550390708F45FC01092F2021092F1028091E0
S11325606103833009F456C08091C1008F77809352
S1132570C100109261034EC0CE3719F460E081E0CF
S113258012C080911802CD3721F482608093180222
S11325900CC081FF06C08D7F8093180260E26C2717
S11325A001C06C2F80E00E94B10380915D0781110E
S11325B02EC080916302E82FF0E0EE0FFF1FE9596F
S11325C0FC4F0190F081E02D2091120290911302B2
S11325D025879487C6878F5F843118F480936302BC
S11325E002C01092630290916302809134029813A6
S11325F003C081E080935D078091170281110AC0B6
S113260087E00E942E0281E08093170203C082E0DB
S11326100E942102FF91EF91CF91BF91AF919F91C1
S11326208F917F916F915F914F913F912F910F9077
S11326300BBE0F900FBE0F901F90189578941F92A9
S11326400F920FB60F9211240BB60F92CF92DF9216
S1132650EF92FF920F931F932F933F934F935F93A8
S11326606F937F938F939F93AF93BF93CF93DF9396
S1132670EF93FF9380916502909166022091A003ED
S11326803091A10300917802109179028217930787
S1132690B0F49C012F5F3F4F309366022093650294
S11326A0F801E80FF91F80819FB7F8948093C60062
S11326B08091C00080648093C0009FBFD0C01092FE
S11326C0790210927802109267028091C1008F7B88
S11326D08093C100FFB6F89480911802982F9170EE
S11326E0D92E80FF0CC08E7F8093180280918F03B7
S11326F08093580288E592E00E94AC0693C0E09172
S113270062038E2F90E0FC013197E830F10508F068
S113271084C0E658FF4F0C941319809177020E94ED
S1132720E906E82E83E080936203609177020AC091
S1132730809161070E94E906E82E83E0809362039A
S11327406091610780911808909119080E946603AE
S113275090931908809318085EC0E091F402F0E0A9
S1132760EE0FFF1FE558FD4F81810E94E906E82E18
S1132770C090F402CC2DD0E0CC0FDD1FFE01E55853
S1132780FD4F618180911808909119080E94660399
S11327909093190880931808909175029F5F909305
S11327A0750281E0C8121EC080912102E0912502C9
S11327B0F0912602E80FF11D20818F5F80932102A2
S11327C030912202381720F482E080937D0201C008
S11327D0D22EC558DD4F8881823021F09F3F11F001
S11327E0D98219C084E012C0809118080E94E906B9
S11327F0E82E85E00BC0809119080E94E906E82EB6
S113280086E004C00E94FD06E82E87E08093620300
S113281002C088E003C0EE2029F089E080936203BF
S11328200E945503FFBE9FB7F8948091F302282FAE
S113283030E02F5F374F0217130769F48F5F84313D
S113284018F48093F30202C01092F3028091AE0256
S113285081111092AE029FBF86E00E942E02FF916A
S1132860EF91DF91CF91BF91AF919F918F917F9124
S11328706F915F914F913F912F911F910F91FF9015
S1132880EF90DF90CF900F900BBE0F900FBE0F9084
S11328901F9018951F920F920FB60F9211248F93C9
S11328A08091C80087FD8091CE008F910F900FBE5C
S11328B00F901F90189578941F920F920FB60F9255
S11328C011240F900FBE0F901F90189578941F92AB
S11328D00F920FB60F9211240F900FBE0F901F90FE
S11328E0189578941F920F920FB60F9211240F909F
S11328F00FBE0F901F90189578941F920F920FB6E9
S11329000F9211240F900FBE0F901F90189578947A
S11329101F920F920FB60F9211248F939F93809161
S11329209600909197009F918F910F900FBE0F90FA
S11329301F90189578941F920F920FB60F9211243E
S11329402F938F939F932FB7F8948091ED029091DA
S1132950EE0201969093EE028093ED022FBF9F91B9
S11329608F912F910F900FBE0F901F9018951F926B
S11329700F920FB60F9211240BB60F920F931F9361
S11329802F933F934F935F936F937F938F939F9373
S1132990AF93BF93EF93FF930E94F7018091B3002D
S11329A090E0019640913F025091400260914102B3
S11329B0709142028A019B01080F191F211D311DCC
S11329C000933F021093400220934102309342024D
S11329D078940E947F05FF91EF91BF91AF919F91F1
S11329E08F917F916F915F914F913F912F911F91A3
S11329F00F910F900BBE0F900FBE0F901F90189564
S1132A001F920F920FB60F9211240BB60F922F93B1
S1132A103F934F935F936F937F938F939F93AF9362
S1132A20BF93EF93FF930E94F701FF91EF91BF9142
S1132A30AF919F918F917F916F915F914F913F9152
S1132A402F910F900BBE0F900FBE0F901F901895F3
S1132A501F920F920FB60F9211240BB60F922F9361
S1132A603F934F935F936F937F938F939F93AF9312
S1132A70BF93EF93FF932EB5E0915C03F0915D0358
S1132A80309739F08091E7029091E802E80FF91F3E
S1132A9020838091E7029091E80201969093E802E6
S1132AA08093E7028CB58F778CBD8091E70290917B
S1132AB0E80260912C0270912D028617970708F0A6
S1132AC03FC02091F6073091F707E0915C03F09145
S1132AD05D03AC01465F5F4F6417750708F4AB01F3
S1132AE04150510984179507C8F42115310549F05F
S1132AF0D901A80FB91F6C916EBD0DB407FEFDCFAF
S1132B0004C01EBC0DB407FEFDCF6EB5309721F096
S1132B10DF01A80FB91F6C930196E4CF4CB5406850
S1132B204CBD2115310531F0F901E80FF91F208161
S1132B302EBD01C01EBC9093E8028093E70211C031
S1132B4010925D0310925C031092F7071092F6073F
S1132B5010922D0210922C021092E8021092E702B9
S1132B608EB5FF91EF91BF91AF919F918F917F911E
S1132B706F915F914F913F912F910F900BBE0F90EA
S1132B800FBE0F901F90189578941F920F920FB656
S1132B900F9211240BB60F922F933F934F935F9391
S1132BA06F937F938F939F93AF93BF93EF93FF9311
S1132BB080916F008D7F80936F0078948FB7F89425
S1132BC090915E03913019F492E090935E038FBF6D
S1132BD00E94590DFF91EF91BF91AF919F918F91F9
S1132BE07F916F915F914F913F912F910F900BBE09
S1132BF00F900FBE0F901F90189578941F920F920C
S1132C000FB60F9211240F900FBE0F901F901895BE
S1132C1078941F920F920FB60F9211240F900FBE4B
S1132C200F901F90189578941F920F920FB60F92E1
S1132C3011240BB60F922F933F934F935F936F938F
S1132C407F938F939F93AF93BF93EF93FF93E6E8A4
S1132C50F0E080819181208131818FB7F8943093A5
S1132C6074022093730291E090939D038FBF0E949E
S1132C70590DFF91EF91BF91AF919F918F917F91EA
S1132C806F915F914F913F912F910F900BBE0F90D9
S1132C900FBE0F901F90189578941F920F920FB645
S1132CA00F9211242F938F939F93AF93BF932FB7BA
S1132CB0F89480916F0290917002A0917102B0918A
S1132CC072020196A11DB11D80936F029093700250
S1132CD0A0937102B09372022FBFBF91AF919F91E5
S1132CE08F912F910F900FBE0F901F901895CFB713
S1132CF0F89414BE88E10FB6F894809360001092A3
S1132D0060000FBE44E150E06FEF70E084E492E0B5
S1132D100E9452198FEF80935E078093150856988E
S1132D205E9854985C9880916F008F7D80936F00BB
S1132D30209A0E94A801279A0E94A6010E9A169A28
S1132D408FE792E090933A028093390210926E02D8
S1132D508AE580935E0281E08093810080E2809323
S1132D60B60083E08093B100209184003091850007
S1132D708AE740918400509185004217530708F474
S1132D8081509A018111F5CF8091B2009091B200E7
S1132D909817E1F320918400309185008091B2006E
S1132DA09091B2009817E1F380918400909185008E
S1132DB04096821B930B55E0969587955A95E1F7BB
S1132DC09093600780935F071092B1001092810086
S1132DD01092B6001092B2001092850010928400F6
S1132DE08FEF87BB86BB8091B6008571E1F70A9AA5
S1132DF0099A089A129A119A109A18B88FEF87B9FB
S1132E000C981498109285001092840080916F00A1
S1132E10816080936F0080918100887F82608093BD
S1132E20810010929500109294008091710081604D
S1132E308093710080919100887F826080939100DB
S1132E400E94E501D82F8F3F19F00E946A0DF8CF38
S1132E50809376020E94EA048091120290911302F8
S1132E60AC014F5F5F4F60E070E040936A025093A3
S1132E706B0260936C0270936D0229E637E0309325
S1132E802F0220932E0228E937E030933102209359
S1132E90300227EC37E030933302209332022FEFD5
S1132EA03FEF3093A3032093A2033093A503209311
S1132EB0A4033093A7032093A6033093A90320937C
S1132EC0A8033093AB032093AA038295807F809359
S1132ED02A02D0935D028091B60080628093B6008E
S1132EE08091B60081FDFCCF82E08093B000809198
S1132EF0B60080FDFCCF83E08093B1008091B600E2
S1132F0083FDFCCF86EE8093B300809170008260D5
S1132F10809370000E947F0512E0D6E060915F0705
S1132F2070916007CB01A0E0B0E0BC01CD012CE0C2
S1132F30660F771F881F991F2A95D1F7C12C31EE90
S1132F40D32EE12CF12CA70196010E94C618215022
S1132F5031092093C4003093C5001093C000D0936E
S1132F60C2001092C10060915F0770916007CB01AD
S1132F70A0E0B0E0BC01CD014CE0660F771F881FD4
S1132F80991F4A95D1F7A70196010E94C6182150AE
S1132F9031092093CC003093CD001093C800D09316
S1132FA0CA001092C90084E490E090939F03809338
S1132FB09E0310927B0210927D028AE0809362034A
S1132FC010927502109277021092610710921908FC
S1132FD0109218081092FB071092F4020E94D30179
S1132FE01092E0021092DF020E94E5018F3F19F077
S1132FF00E946A0DF9CFCFBF78941092F302109219
S11330003E0210923C0281E08093AE0281EB93E099
S1133010E7E6F3E0819391938F9623E0EF38F2078C
S1133020C9F710923402109263021092170281E0E1
S113303080935D078091120290911302892B21F4F1
S113304080910A02809316020E94AA018091610273
S1133050811117C080912B02811113C08091F80750
S1133060813029F480915E0381110BC002C0853048
S113307041F083E080932B020E94590D85E08093F8
S113308061020E94380CCFB7F8940E94E5018F3F8B
S113309009F050C080917000837089F08091B6006F
S11330A08A71E1F78091B3009091B200891B8C3052
S11330B040F08091B200853F20F483E003C085E0B6
S11330C001C082E0E0916E00E670E9F490916F0037
S11330D09E72E1F4E0917100EE72A9F40CB407FC65
S11330E015C09091C100987189F4E091C900E8710C
S11330F051F49091BC0092FD09C090917A0097FD23
S113310004C0E5E003C0E0E001C0E1E093B78E173E
S113311008F4E82FF0E0EC5FFE4F8491E92FE07FA4
S1133120E160E82BE3BF78948895F89483B78E7FA9
S113313083BFABCFCFBF0E946A0DA5CFAA1BBB1B19
S113314051E107C0AA1FBB1FA617B70710F0A61BA3
S1133150B70B881F991F5A95A9F780959095BC01C4
S1133160CD01089597FB072E16F4009407D077FD40
S113317009D00E949E1807FC05D03EF490958195D5
S11331809F4F0895709561957F4F0895A1E21A2E7F
S1133190AA1BBB1BFD010DC0AA1FBB1FEE1FFF1FF7
S11331A0A217B307E407F50720F0A21BB30BE40B47
S11331B0F50B661F771F881F991F1A9469F760958E
S11331C07095809590959B01AC01BD01CF01089548
S11331D0E894DF93CF93FC01DB010E943A197F93BB
S11331E06F93E9019A01AC01BF93AF933F932F937F
S11331F0DF010E943A1926F46C1B7D0B820B930BA2
S11332009E01EB01FC010E944919AF91BF912F91DE
S11332103F910E944919BE01CF01F9012F913F91BD
S1133220CF91DF910895EE0FFF1F0024001C0BBE09
S11332300790F691E02D099497FB10F81694000876
S11332400F93083098F00850232F342F452F562F12
S1133250672F782F892F902DF4CF05949795879514
S11332607795679557954795379527950A95AAF7C2
S11332700F910895A29FB001B39FC001A39F700D49
S1133280811D1124911DB29F700D811D1124911D6A
S113329008950E943A19460F571FC81FD91F08F4F2
S11332A031960895DC0101C06D9341505040E0F720
S10932B00895F894FFCF1D
S11332B601FFFFFFFFFFFF22010001FE02FE022DB8
S10732C603FF0100FD
S9030000FC
